{
  "transactions": [
    {
      "hash": "0x9bb438be3a38f9facc5d399223d887011b9d5533ef6f2e73b0b8de7beeb0d61b",
      "transactionType": "CALL",
      "contractName": null,
      "contractAddress": "0x498581ff718922c3f8e6a244956af099b2652b2b",
      "function": "initialize((address,address,uint24,int24,address),uint160)",
      "arguments": [
        "(0x820C137fa70C8691f0e44Dc420a5e53c168921Dc, 0x836f4b0e5774eDb800F4e0741E825Ee6F8cD6bf6, 0, 1, 0xCaa01Ba96895936257af3Cd27E08b7578039C088)",
        "79228162514264337593543950336"
      ],
      "transaction": {
        "from": "0x398ca93b76806d3517dd3520f1ae09620fcb5c24",
        "to": "0x498581ff718922c3f8e6a244956af099b2652b2b",
        "gas": "0x11716",
        "value": "0x0",
        "input": "0x6276cbbe000000000000000000000000820c137fa70c8691f0e44dc420a5e53c168921dc000000000000000000000000836f4b0e5774edb800f4e0741e825ee6f8cd6bf600000000000000000000000000000000000000000000000000000000000000000000000000000000000000000000000000000000000000000000000000000001000000000000000000000000caa01ba96895936257af3cd27e08b7578039c0880000000000000000000000000000000000000001000000000000000000000000",
        "nonce": "0x37",
        "chainId": "0x2105"
      },
      "additionalContracts": [],
      "isFixedGasLimit": false
    },
    {
      "hash": "0xa3e1aa8290575f8ff475f3da1f4cc4fd4d086e7c40cc869b9795a410b4d6f307",
      "transactionType": "CREATE",
      "contractName": "MinimalRouter",
      "contractAddress": "0x2a5a0238710329aa835b975ce23874c35790d3d8",
      "function": null,
      "arguments": [
        "0x498581fF718922c3f8e6A244956aF099B2652b2b"
      ],
      "transaction": {
        "from": "0x398ca93b76806d3517dd3520f1ae09620fcb5c24",
        "to": null,
        "gas": "0xf3128",
        "value": "0x0",
        "input": "0x60a034608457601f610d8738819003918201601f19168301916001600160401b03831184841017608857808492602094604052833981010312608457516001600160a01b03811690819003608457608052604051610cea908161009d82396080518181816102ec015281816104a401528181610856015281816109e70152610bfe0152f35b5f80fd5b634e487b7160e01b5f52604160045260245ffdfe6080806040526004361015610012575f80fd5b5f3560e01c90816362308e851461080e5750806391dd7346146104215763f8fff1911461003d575f80fd5b3461033d577ffffffffffffffffffffffffffffffffffffffffffffffffffffffffffffffffc3601610120811261033d5760a01361033d5760607fffffffffffffffffffffffffffffffffffffffffffffffffffffffffffffff5c36011261033d576101043573ffffffffffffffffffffffffffffffffffffffff811680910361033d576040516100cd816108e3565b6040516100d9816108ff565b60043573ffffffffffffffffffffffffffffffffffffffff8116810361033d57815260243573ffffffffffffffffffffffffffffffffffffffff8116810361033d57602082015260443562ffffff8116810361033d5760408201526064358060020b810361033d57606082015260843573ffffffffffffffffffffffffffffffffffffffff8116810361033d57608082015281526040519061017a8261091b565b60a435801515810361033d57825260c435602083015260e4359173ffffffffffffffffffffffffffffffffffffffff8316830361033d576102d29373ffffffffffffffffffffffffffffffffffffffff825f956040839501526020850190815261027e6040860191338352606087019485526102486040519760208901905173ffffffffffffffffffffffffffffffffffffffff6080809282815116855282602082015116602086015262ffffff6040820151166040860152606081015160020b6060860152015116910152565b518051151560c0880152602081015160e08801526040015173ffffffffffffffffffffffffffffffffffffffff16610100870152565b51166101208401525116610140820152610140815261029f61016082610937565b604051809381927f48c894910000000000000000000000000000000000000000000000000000000083526004830161087a565b03818373ffffffffffffffffffffffffffffffffffffffff7f0000000000000000000000000000000000000000000000000000000000000000165af1908115610416575f91610341575b506020815191818082019384920101031261033d5760209051604051908152f35b5f80fd5b90503d805f833e6103528183610937565b81019060208183031261033d5780519067ffffffffffffffff821161033d570181601f8201121561033d5780519067ffffffffffffffff82116103e957604051926103c560207fffffffffffffffffffffffffffffffffffffffffffffffffffffffffffffffe0601f8601160185610937565b8284526020838301011161033d57815f9260208093018386015e830101525f61031c565b7f4e487b71000000000000000000000000000000000000000000000000000000005f52604160045260245ffd5b6040513d5f823e3d90fd5b3461033d5760207ffffffffffffffffffffffffffffffffffffffffffffffffffffffffffffffffc36011261033d5760043567ffffffffffffffff811161033d573660238201121561033d57806004013567ffffffffffffffff811161033d57810136602482011161033d5773ffffffffffffffffffffffffffffffffffffffff7f000000000000000000000000000000000000000000000000000000000000000016918233036107b0576101408183031261033d57604051916104e4836108e3565b60a08282031261033d57604051906104fb826108ff565b610507602484016108c2565b8252610515604484016108c2565b6020830152606483013562ffffff8116810361033d57604083015260848301358060020b810361033d57606083015260a48301359173ffffffffffffffffffffffffffffffffffffffff8316830361033d57836024928260609560807fffffffffffffffffffffffffffffffffffffffffffffffffffffffffffffff3c95015287520301011261033d57604051916105ac8361091b565b60c4820135801515810361033d57835260e4820135602084015261010482013573ffffffffffffffffffffffffffffffffffffffff8116810361033d57604084015282602082015260206106a961014461061b8161060d61012488016108c2565b9660408701978852016108c2565b96606085019788525f8551916106dd604051998a9687957ff3cd914c000000000000000000000000000000000000000000000000000000008752600487019073ffffffffffffffffffffffffffffffffffffffff6080809282815116855282602082015116602086015262ffffff6040820151166040860152606081015160020b6060860152015116910152565b8051151560a4860152602081015160c48601526040015173ffffffffffffffffffffffffffffffffffffffff1660e4850152565b610120610104840152816101248401525af1928315610416575f93610778575b50906107749373ffffffffffffffffffffffffffffffffffffffff808060208661073b83610750995151168489511685895116918c60801d90610978565b510151169351169151169184600f0b90610978565b60405190602082015260208152610768604082610937565b6040519182918261087a565b0390f35b919092506020823d6020116107a8575b8161079560209383610937565b8101031261033d579051916107746106fd565b3d9150610788565b60646040517f08c379a000000000000000000000000000000000000000000000000000000000815260206004820152601860248201527f726f757465723a206f6e6c7920506f6f6c4d616e6167657200000000000000006044820152fd5b3461033d575f7ffffffffffffffffffffffffffffffffffffffffffffffffffffffffffffffffc36011261033d5760209073ffffffffffffffffffffffffffffffffffffffff7f0000000000000000000000000000000000000000000000000000000000000000168152f35b7fffffffffffffffffffffffffffffffffffffffffffffffffffffffffffffffe0601f602060409481855280519182918282880152018686015e5f8582860101520116010190565b359073ffffffffffffffffffffffffffffffffffffffff8216820361033d57565b6080810190811067ffffffffffffffff8211176103e957604052565b60a0810190811067ffffffffffffffff8211176103e957604052565b6060810190811067ffffffffffffffff8211176103e957604052565b90601f7fffffffffffffffffffffffffffffffffffffffffffffffffffffffffffffffe0910116810190811067ffffffffffffffff8211176103e957604052565b600f82900b94935f93928615610cab575f871215610be057505073ffffffffffffffffffffffffffffffffffffffff16907fffffffffffffffffffffffffffffffff800000000000000000000000000000008514610bb35773ffffffffffffffffffffffffffffffffffffffff7f00000000000000000000000000000000000000000000000000000000000000001691823b15610ba4576040517fa5841194000000000000000000000000000000000000000000000000000000008152816004820152848160248183885af18015610ba85790859291610b8b575b5060209273ffffffffffffffffffffffffffffffffffffffff926064926fffffffffffffffffffffffffffffffff6040519a8b9687957f23b872dd00000000000000000000000000000000000000000000000000000000875216600486015288602486015283031660448401525af1938415610b3c57829394610b47575b506020906004604051809481937f11da60b40000000000000000000000000000000000000000000000000000000083525af18015610b3c57610b11575050565b602090813d8311610b35575b610b278183610937565b81010312610b325750565b80fd5b503d610b1d565b6040513d84823e3d90fd5b9091506020813d602011610b83575b81610b6360209383610937565b81010312610b7f57518015158103610b7f575081906020610ad1565b8280fd5b3d9150610b56565b82610b9891939293610937565b610ba45783905f610a53565b8380fd5b6040513d87823e3d90fd5b6024837f4e487b710000000000000000000000000000000000000000000000000000000081526011600452fd5b9250939450915073ffffffffffffffffffffffffffffffffffffffff7f000000000000000000000000000000000000000000000000000000000000000016803b1561033d575f92836064926fffffffffffffffffffffffffffffffff73ffffffffffffffffffffffffffffffffffffffff9586604051998a9889977f0b0d9c090000000000000000000000000000000000000000000000000000000089521660048801521660248601521660448401525af1801561041657610c9f5750565b5f610ca991610937565b565b5050505050905056fea26469706673582212206be415fe5d8448e8aecdd535ef0e8d9dcdef7a8c42643aa8651068bf81c0188b64736f6c634300081a0033000000000000000000000000498581ff718922c3f8e6a244956af099b2652b2b",
        "nonce": "0x38",
        "chainId": "0x2105"
      },
      "additionalContracts": [],
      "isFixedGasLimit": false
    },
    {
      "hash": "0x4f515459cc0c1d1c839d42b5719d2df80b7a1911cbc59a31d6ac420f7cdf083b",
      "transactionType": "CALL",
      "contractName": null,
      "contractAddress": "0x820c137fa70c8691f0e44dc420a5e53c168921dc",
      "function": "approve(address,uint256)",
      "arguments": [
        "0x2a5A0238710329aa835B975ce23874C35790d3d8",
        "1000000000000000000"
      ],
      "transaction": {
        "from": "0x398ca93b76806d3517dd3520f1ae09620fcb5c24",
        "to": "0x820c137fa70c8691f0e44dc420a5e53c168921dc",
        "gas": "0x123c7",
        "value": "0x0",
        "input": "0x095ea7b30000000000000000000000002a5a0238710329aa835b975ce23874c35790d3d80000000000000000000000000000000000000000000000000de0b6b3a7640000",
        "nonce": "0x39",
        "chainId": "0x2105"
      },
      "additionalContracts": [],
      "isFixedGasLimit": false
    },
    {
      "hash": "0xea666604233991fb38455ce5ff76f1f6d6e7b68b9ed26d84ec1478fba552aaa7",
      "transactionType": "CALL",
      "contractName": "MinimalRouter",
      "contractAddress": "0x2a5a0238710329aa835b975ce23874c35790d3d8",
      "function": "swap((address,address,uint24,int24,address),(bool,int256,uint160),address)",
      "arguments": [
        "(0x820C137fa70C8691f0e44Dc420a5e53c168921Dc, 0x836f4b0e5774eDb800F4e0741E825Ee6F8cD6bf6, 0, 1, 0xCaa01Ba96895936257af3Cd27E08b7578039C088)",
        "(true, -1000000000000000000, 0)",
        "0x398CA93b76806D3517DD3520F1aE09620Fcb5c24"
      ],
      "transaction": {
        "from": "0x398ca93b76806d3517dd3520f1ae09620fcb5c24",
        "to": "0x2a5a0238710329aa835b975ce23874c35790d3d8",
        "gas": "0x6f5a6",
        "value": "0x0",
        "input": "0xf8fff191000000000000000000000000820c137fa70c8691f0e44dc420a5e53c168921dc000000000000000000000000836f4b0e5774edb800f4e0741e825ee6f8cd6bf600000000000000000000000000000000000000000000000000000000000000000000000000000000000000000000000000000000000000000000000000000001000000000000000000000000caa01ba96895936257af3cd27e08b7578039c0880000000000000000000000000000000000000000000000000000000000000001fffffffffffffffffffffffffffffffffffffffffffffffff21f494c589c00000000000000000000000000000000000000000000000000000000000000000000000000000000000000000000398ca93b76806d3517dd3520f1ae09620fcb5c24",
        "nonce": "0x3a",
        "chainId": "0x2105"
      },
      "additionalContracts": [],
      "isFixedGasLimit": false
    },
    {
      "hash": "0x4d55adb9c6e8d0096e86fe3ee26336f91511bfefb5ce6bbbe567b96c96399920",
      "transactionType": "CALL",
      "contractName": null,
      "contractAddress": "0x836f4b0e5774edb800f4e0741e825ee6f8cd6bf6",
      "function": "transfer(address,uint256)",
      "arguments": [
        "0x000000000000000000000000000000000000dEaD",
        "793758392010599532"
      ],
      "transaction": {
        "from": "0x398ca93b76806d3517dd3520f1ae09620fcb5c24",
        "to": "0x836f4b0e5774edb800f4e0741e825ee6f8cd6bf6",
        "gas": "0x9d01",
        "value": "0x0",
        "input": "0xa9059cbb000000000000000000000000000000000000000000000000000000000000dead0000000000000000000000000000000000000000000000000b03ff0d5146ec6c",
        "nonce": "0x3b",
        "chainId": "0x2105"
      },
      "additionalContracts": [],
      "isFixedGasLimit": false
    }
  ],
  "receipts": [
    {
      "type": "0x2",
      "status": "0x1",
      "cumulativeGasUsed": "0x1490956",
      "logs": [
        {
          "address": "0x498581ff718922c3f8e6a244956af099b2652b2b",
          "topics": [
            "0xdd466e674ea557f56295e2d0218a125ea4b4f0f6f3307b95f85e6110838d6438",
            "0xade121b3a126a1951270366763bb04fe114593fe04cd58a923d2e9b5be161adb",
            "0x000000000000000000000000820c137fa70c8691f0e44dc420a5e53c168921dc",
            "0x000000000000000000000000836f4b0e5774edb800f4e0741e825ee6f8cd6bf6"
          ],
          "data": "0x00000000000000000000000000000000000000000000000000000000000000000000000000000000000000000000000000000000000000000000000000000001000000000000000000000000caa01ba96895936257af3cd27e08b7578039c08800000000000000000000000000000000000000010000000000000000000000000000000000000000000000000000000000000000000000000000000000000000",
          "blockHash": "0xbc45882227f7531155b306ce42b8cd1c1c16ab78abdc02ac3ffe4a17d8c9f866",
          "blockNumber": "0x2d732f6",
          "blockTimestamp": "0x6a38c2cf",
          "transactionHash": "0x9bb438be3a38f9facc5d399223d887011b9d5533ef6f2e73b0b8de7beeb0d61b",
          "transactionIndex": "0x76",
          "logIndex": "0x239",
          "removed": false
        }
      ],
      "logsBloom": "0x00000000000000000000000000000000000000000000000000000000000000000000000000000000000000000000000000000000400000000000000000000000000000040000000000000000000000000000000000000000000000000000000000000000000000000000000008000000200000000000000000000000000000000000400000004008000000000000000000000001000000010000000000200000000000000000800000000000000000000000000000000000000000000000000000000000000000000004000000000000000800000000000000000000000000000000000004000000000000000000000000000400000000000000000000000000",
      "transactionHash": "0x9bb438be3a38f9facc5d399223d887011b9d5533ef6f2e73b0b8de7beeb0d61b",
      "transactionIndex": "0x76",
      "blockHash": "0xbc45882227f7531155b306ce42b8cd1c1c16ab78abdc02ac3ffe4a17d8c9f866",
      "blockNumber": "0x2d732f6",
      "gasUsed": "0xca0f",
      "effectiveGasPrice": "0x5b8d80",
      "blobGasUsed": "0x4ce4",
      "from": "0x398ca93b76806d3517dd3520f1ae09620fcb5c24",
      "to": "0x498581ff718922c3f8e6a244956af099b2652b2b",
      "contractAddress": null,
      "l1GasPrice": "0x501b316",
      "l1GasUsed": "0x851",
      "l1Fee": "0x3974b5d8",
      "l1BaseFeeScalar": "0x8dd",
      "l1BlobBaseFee": "0x3c9d70",
      "l1BlobBaseFeeScalar": "0x101c12",
      "daFootprintGasScalar": "0x94"
    },
    {
      "type": "0x2",
      "status": "0x1",
      "cumulativeGasUsed": "0xce4144",
      "logs": [],
      "logsBloom": "0x00000000000000000000000000000000000000000000000000000000000000000000000000000000000000000000000000000000000000000000000000000000000000000000000000000000000000000000000000000000000000000000000000000000000000000000000000000000000000000000000000000000000000000000000000000000000000000000000000000000000000000000000000000000000000000000000000000000000000000000000000000000000000000000000000000000000000000000000000000000000000000000000000000000000000000000000000000000000000000000000000000000000000000000000000000000",
      "transactionHash": "0xa3e1aa8290575f8ff475f3da1f4cc4fd4d086e7c40cc869b9795a410b4d6f307",
      "transactionIndex": "0x35",
      "blockHash": "0x9114203df80f627389a5f8970f8226a7129c0f7b876e7a76bfb5e29cbefc02b0",
      "blockNumber": "0x2d732f8",
      "gasUsed": "0xbafa9",
      "effectiveGasPrice": "0x5b8d80",
      "blobGasUsed": "0x3c044",
      "from": "0x398ca93b76806d3517dd3520f1ae09620fcb5c24",
      "to": null,
      "contractAddress": "0x2a5a0238710329aa835b975ce23874c35790d3d8",
      "l1GasPrice": "0x501b316",
      "l1GasUsed": "0x67d5",
      "l1Fee": "0x2cd47b975",
      "l1BaseFeeScalar": "0x8dd",
      "l1BlobBaseFee": "0x3c9d70",
      "l1BlobBaseFeeScalar": "0x101c12",
      "daFootprintGasScalar": "0x94"
    },
    {
      "type": "0x2",
      "status": "0x1",
      "cumulativeGasUsed": "0x187923d",
      "logs": [
        {
          "address": "0x820c137fa70c8691f0e44dc420a5e53c168921dc",
          "topics": [
            "0x8c5be1e5ebec7d5bd14f71427d1e84f3dd0314c0f7b2291e5b200ac8c7c3b925",
            "0x000000000000000000000000398ca93b76806d3517dd3520f1ae09620fcb5c24",
            "0x0000000000000000000000002a5a0238710329aa835b975ce23874c35790d3d8"
          ],
          "data": "0x0000000000000000000000000000000000000000000000000de0b6b3a7640000",
          "blockHash": "0x96f2b96e5142bc72da4d1ebf276e781ba2fcc1520a5fb51c2a5db4397ed9e1ef",
          "blockNumber": "0x2d732f9",
          "blockTimestamp": "0x6a38c2d5",
          "transactionHash": "0x4f515459cc0c1d1c839d42b5719d2df80b7a1911cbc59a31d6ac420f7cdf083b",
          "transactionIndex": "0x79",
          "logIndex": "0x26d",
          "removed": false
        }
      ],
      "logsBloom": "0x00000040000000000000000000000000000000000000000000000000000080000000000000000000000020000000000000000000000000000000000000200000000000000000000000000000000000000000000000000000000000000080000000000000000000000000000000000000000000000000000000000000000000000000000000000000000000000000000000000000000000000000000000000000020000000000000004040000000000000000000000000000000000000000000000000000800000000000000000000000000000000000000000000000000000000010000000000008000000000000000000000000000000000000000000000000",
      "transactionHash": "0x4f515459cc0c1d1c839d42b5719d2df80b7a1911cbc59a31d6ac420f7cdf083b",
      "transactionIndex": "0x79",
      "blockHash": "0x96f2b96e5142bc72da4d1ebf276e781ba2fcc1520a5fb51c2a5db4397ed9e1ef",
      "blockNumber": "0x2d732f9",
      "gasUsed": "0xc782",
      "effectiveGasPrice": "0x5b8d80",
      "blobGasUsed": "0x39d0",
      "from": "0x398ca93b76806d3517dd3520f1ae09620fcb5c24",
      "to": "0x820c137fa70c8691f0e44dc420a5e53c168921dc",
      "contractAddress": null,
      "l1GasPrice": "0x501b316",
      "l1GasUsed": "0x640",
      "l1Fee": "0x2b2c9517",
      "l1BaseFeeScalar": "0x8dd",
      "l1BlobBaseFee": "0x3c9d70",
      "l1BlobBaseFeeScalar": "0x101c12",
      "daFootprintGasScalar": "0x94"
    },
    {
      "type": "0x2",
      "status": "0x1",
      "cumulativeGasUsed": "0x85f0ee",
      "logs": [
        {
          "address": "0x498581ff718922c3f8e6a244956af099b2652b2b",
          "topics": [
            "0x1b3d7edb2e9c0b0e7c525b20aaaef0f5940d2ed71663c7d39266ecafac728859",
            "0x0000000000000000000000000000000000000000000000000000000000000000",
            "0x0000000000000000000000005de65a46ee6cb284af9caef85fe693752a23f609",
            "0x000000000000000000000000820c137fa70c8691f0e44dc420a5e53c168921dc"
          ],
          "data": "0x000000000000000000000000caa01ba96895936257af3cd27e08b7578039c0880000000000000000000000000000000000000000000000000de0b6b3a7640000",
          "blockHash": "0x9f54401acafceeb3e9743440159f64d7a7613b8db6db7cc7d7a30dfa410f8da4",
          "blockNumber": "0x2d732fb",
          "blockTimestamp": "0x6a38c2d9",
          "transactionHash": "0xea666604233991fb38455ce5ff76f1f6d6e7b68b9ed26d84ec1478fba552aaa7",
          "transactionIndex": "0x1c",
          "logIndex": "0x115",
          "removed": false
        },
        {
          "address": "0x5de65a46ee6cb284af9caef85fe693752a23f609",
          "topics": [
            "0xc5c0991ca4ba1f2127842fe98587c4bfb05a76e62b44cb0551f9909de5b7a787"
          ],
          "data": "0x0000000000000000000000000000000000000000000000000de0b6b3a7640000000000000000000000000000000000000000000000000000000776b401f71135",
          "blockHash": "0x9f54401acafceeb3e9743440159f64d7a7613b8db6db7cc7d7a30dfa410f8da4",
          "blockNumber": "0x2d732fb",
          "blockTimestamp": "0x6a38c2d9",
          "transactionHash": "0xea666604233991fb38455ce5ff76f1f6d6e7b68b9ed26d84ec1478fba552aaa7",
          "transactionIndex": "0x1c",
          "logIndex": "0x116",
          "removed": false
        },
        {
          "address": "0x836f4b0e5774edb800f4e0741e825ee6f8cd6bf6",
          "topics": [
            "0xddf252ad1be2c89b69c2b068fc378daa952ba7f163c4a11628f55a4df523b3ef",
            "0x0000000000000000000000000000000000000000000000000000000000000000",
            "0x000000000000000000000000caa01ba96895936257af3cd27e08b7578039c088"
          ],
          "data": "0x0000000000000000000000000000000000000000000000000b03ff0d5146ec6c",
          "blockHash": "0x9f54401acafceeb3e9743440159f64d7a7613b8db6db7cc7d7a30dfa410f8da4",
          "blockNumber": "0x2d732fb",
          "blockTimestamp": "0x6a38c2d9",
          "transactionHash": "0xea666604233991fb38455ce5ff76f1f6d6e7b68b9ed26d84ec1478fba552aaa7",
          "transactionIndex": "0x1c",
          "logIndex": "0x117",
          "removed": false
        },
        {
          "address": "0x836f4b0e5774edb800f4e0741e825ee6f8cd6bf6",
          "topics": [
            "0xddf252ad1be2c89b69c2b068fc378daa952ba7f163c4a11628f55a4df523b3ef",
            "0x000000000000000000000000caa01ba96895936257af3cd27e08b7578039c088",
            "0x000000000000000000000000498581ff718922c3f8e6a244956af099b2652b2b"
          ],
          "data": "0x0000000000000000000000000000000000000000000000000b03ff0d5146ec6c",
          "blockHash": "0x9f54401acafceeb3e9743440159f64d7a7613b8db6db7cc7d7a30dfa410f8da4",
          "blockNumber": "0x2d732fb",
          "blockTimestamp": "0x6a38c2d9",
          "transactionHash": "0xea666604233991fb38455ce5ff76f1f6d6e7b68b9ed26d84ec1478fba552aaa7",
          "transactionIndex": "0x1c",
          "logIndex": "0x118",
          "removed": false
        },
        {
          "address": "0xcaa01ba96895936257af3cd27e08b7578039c088",
          "topics": [
            "0xb4c03061fb5b7fed76389d5af8f2e0ddb09f8c70d1333abbb62582835e10accb",
            "0x0000000000000000000000002a5a0238710329aa835b975ce23874c35790d3d8"
          ],
          "data": "0x0000000000000000000000000000000000000000000000000de0b6b3a76400000000000000000000000000000000000000000000000000000b03ff0d5146ec6c000000000000000000000000000000000000000000000000000776b401f71135",
          "blockHash": "0x9f54401acafceeb3e9743440159f64d7a7613b8db6db7cc7d7a30dfa410f8da4",
          "blockNumber": "0x2d732fb",
          "blockTimestamp": "0x6a38c2d9",
          "transactionHash": "0xea666604233991fb38455ce5ff76f1f6d6e7b68b9ed26d84ec1478fba552aaa7",
          "transactionIndex": "0x1c",
          "logIndex": "0x119",
          "removed": false
        },
        {
          "address": "0x498581ff718922c3f8e6a244956af099b2652b2b",
          "topics": [
            "0x40e9cecb9f5f1f1c5b9c97dec2917b7ee92e57ba5563708daca94dd84ad7112f",
            "0xade121b3a126a1951270366763bb04fe114593fe04cd58a923d2e9b5be161adb",
            "0x0000000000000000000000002a5a0238710329aa835b975ce23874c35790d3d8"
          ],
          "data": "0x000000000000000000000000000000000000000000000000000000000000000000000000000000000000000000000000000000000000000000000000000000000000000000000000000000000000000000000001000000000000000000000000000000000000000000000000000000000000000000000000000000000000000000000000000000000000000000000000000000000000000000000000000000000000000000000000000000000000000000000000000000000000000000000000",
          "blockHash": "0x9f54401acafceeb3e9743440159f64d7a7613b8db6db7cc7d7a30dfa410f8da4",
          "blockNumber": "0x2d732fb",
          "blockTimestamp": "0x6a38c2d9",
          "transactionHash": "0xea666604233991fb38455ce5ff76f1f6d6e7b68b9ed26d84ec1478fba552aaa7",
          "transactionIndex": "0x1c",
          "logIndex": "0x11a",
          "removed": false
        },
        {
          "address": "0x820c137fa70c8691f0e44dc420a5e53c168921dc",
          "topics": [
            "0xddf252ad1be2c89b69c2b068fc378daa952ba7f163c4a11628f55a4df523b3ef",
            "0x000000000000000000000000398ca93b76806d3517dd3520f1ae09620fcb5c24",
            "0x000000000000000000000000498581ff718922c3f8e6a244956af099b2652b2b"
          ],
          "data": "0x0000000000000000000000000000000000000000000000000de0b6b3a7640000",
          "blockHash": "0x9f54401acafceeb3e9743440159f64d7a7613b8db6db7cc7d7a30dfa410f8da4",
          "blockNumber": "0x2d732fb",
          "blockTimestamp": "0x6a38c2d9",
          "transactionHash": "0xea666604233991fb38455ce5ff76f1f6d6e7b68b9ed26d84ec1478fba552aaa7",
          "transactionIndex": "0x1c",
          "logIndex": "0x11b",
          "removed": false
        },
        {
          "address": "0x836f4b0e5774edb800f4e0741e825ee6f8cd6bf6",
          "topics": [
            "0xddf252ad1be2c89b69c2b068fc378daa952ba7f163c4a11628f55a4df523b3ef",
            "0x000000000000000000000000498581ff718922c3f8e6a244956af099b2652b2b",
            "0x000000000000000000000000398ca93b76806d3517dd3520f1ae09620fcb5c24"
          ],
          "data": "0x0000000000000000000000000000000000000000000000000b03ff0d5146ec6c",
          "blockHash": "0x9f54401acafceeb3e9743440159f64d7a7613b8db6db7cc7d7a30dfa410f8da4",
          "blockNumber": "0x2d732fb",
          "blockTimestamp": "0x6a38c2d9",
          "transactionHash": "0xea666604233991fb38455ce5ff76f1f6d6e7b68b9ed26d84ec1478fba552aaa7",
          "transactionIndex": "0x1c",
          "logIndex": "0x11c",
          "removed": false
        }
      ],
      "logsBloom": "0x00008040000040000000000000000010000000000000008000000000000080000020000000001000000020000000001000001000040000000000000000000000000000040000000000000208800004000000000001000020000000000080000000000040020000000000100000000800202000000000000000000010000000000000400000004000400000000000000000000000000000000000000400000000004000000080800004040008000020000000000000000000000000000000000000000002800000000004000010000000000800040000040000000000000020008000000004000008004000000000000000000400000000000000000804000000",
      "transactionHash": "0xea666604233991fb38455ce5ff76f1f6d6e7b68b9ed26d84ec1478fba552aaa7",
      "transactionIndex": "0x1c",
      "blockHash": "0x9f54401acafceeb3e9743440159f64d7a7613b8db6db7cc7d7a30dfa410f8da4",
      "blockNumber": "0x2d732fb",
      "gasUsed": "0x4c239",
      "effectiveGasPrice": "0x5b8d80",
      "blobGasUsed": "0x5ed0",
      "from": "0x398ca93b76806d3517dd3520f1ae09620fcb5c24",
      "to": "0x2a5a0238710329aa835b975ce23874c35790d3d8",
      "contractAddress": null,
      "l1GasPrice": "0x52b9c29",
      "l1GasUsed": "0xa4d",
      "l1Fee": "0x49e3d784",
      "l1BaseFeeScalar": "0x8dd",
      "l1BlobBaseFee": "0x3f28fc",
      "l1BlobBaseFeeScalar": "0x101c12",
      "daFootprintGasScalar": "0x94"
    },
    {
      "type": "0x2",
      "status": "0x1",
      "cumulativeGasUsed": "0x1cf5edd",
      "logs": [
        {
          "address": "0x836f4b0e5774edb800f4e0741e825ee6f8cd6bf6",
          "topics": [
            "0xddf252ad1be2c89b69c2b068fc378daa952ba7f163c4a11628f55a4df523b3ef",
            "0x000000000000000000000000398ca93b76806d3517dd3520f1ae09620fcb5c24",
            "0x000000000000000000000000000000000000000000000000000000000000dead"
          ],
          "data": "0x0000000000000000000000000000000000000000000000000b03ff0d5146ec6c",
          "blockHash": "0xecafa400d63f3ccbd1a7545ac807f95cb6f6ab5ba15f9ef25dece3e1ebcd03e5",
          "blockNumber": "0x2d732fc",
          "blockTimestamp": "0x6a38c2db",
          "transactionHash": "0x4d55adb9c6e8d0096e86fe3ee26336f91511bfefb5ce6bbbe567b96c96399920",
          "transactionIndex": "0xc7",
          "logIndex": "0x1e3",
          "removed": false
        }
      ],
      "logsBloom": "0x00000000000010000000000000000000000000000000000000000000000080000000000000000000000000000000000000001000000000000000000000000000000000000000000000000008000000000000000000000000000000000080000000000000000000000000000000000000000000000000000000000010000000000000000000000000000004000000000000000000000000000000000000000000000000000000000000040008000000000000000000000000000000000000000000000402000000000000000010000000000000000000000000000000000000000000000000000000000000000000000000000000000000000000000000000000",
      "transactionHash": "0x4d55adb9c6e8d0096e86fe3ee26336f91511bfefb5ce6bbbe567b96c96399920",
      "transactionIndex": "0xc7",
      "blockHash": "0xecafa400d63f3ccbd1a7545ac807f95cb6f6ab5ba15f9ef25dece3e1ebcd03e5",
      "blockNumber": "0x2d732fc",
      "gasUsed": "0x71ac",
      "effectiveGasPrice": "0x5b8d80",
      "blobGasUsed": "0x39d0",
      "from": "0x398ca93b76806d3517dd3520f1ae09620fcb5c24",
      "to": "0x836f4b0e5774edb800f4e0741e825ee6f8cd6bf6",
      "contractAddress": null,
      "l1GasPrice": "0x52b9c29",
      "l1GasUsed": "0x640",
      "l1Fee": "0x2cd16fc4",
      "l1BaseFeeScalar": "0x8dd",
      "l1BlobBaseFee": "0x3f28fc",
      "l1BlobBaseFeeScalar": "0x101c12",
      "daFootprintGasScalar": "0x94"
    }
  ],
  "libraries": [],
  "pending": [],
  "returns": {},
  "timestamp": 1782104796508,
  "chain": 8453,
  "commit": "18ee4fa"
}